{
  "contractName": "NotASecurity",
  "abi": [
    {
      "constant": true,
      "inputs": [],
      "name": "name",
      "outputs": [
        {
          "name": "",
          "type": "string"
        }
      ],
      "payable": false,
      "stateMutability": "view",
      "type": "function"
    },
    {
      "constant": true,
      "inputs": [
        {
          "name": "",
          "type": "uint256"
        }
      ],
      "name": "benefactors",
      "outputs": [
        {
          "name": "",
          "type": "address"
        }
      ],
      "payable": false,
      "stateMutability": "view",
      "type": "function"
    },
    {
      "constant": true,
      "inputs": [],
      "name": "totalSupply",
      "outputs": [
        {
          "name": "",
          "type": "uint256"
        }
      ],
      "payable": false,
      "stateMutability": "view",
      "type": "function"
    },
    {
      "constant": true,
      "inputs": [],
      "name": "benefactorsBalance",
      "outputs": [
        {
          "name": "",
          "type": "uint256"
        }
      ],
      "payable": false,
      "stateMutability": "view",
      "type": "function"
    },
    {
      "constant": true,
      "inputs": [],
      "name": "decimals",
      "outputs": [
        {
          "name": "",
          "type": "uint256"
        }
      ],
      "payable": false,
      "stateMutability": "view",
      "type": "function"
    },
    {
      "constant": true,
      "inputs": [
        {
          "name": "",
          "type": "address"
        }
      ],
      "name": "balanceOf",
      "outputs": [
        {
          "name": "",
          "type": "uint256"
        }
      ],
      "payable": false,
      "stateMutability": "view",
      "type": "function"
    },
    {
      "constant": true,
      "inputs": [],
      "name": "symbol",
      "outputs": [
        {
          "name": "",
          "type": "string"
        }
      ],
      "payable": false,
      "stateMutability": "view",
      "type": "function"
    },
    {
      "inputs": [
        {
          "name": "_fee",
          "type": "uint256"
        }
      ],
      "payable": false,
      "stateMutability": "nonpayable",
      "type": "constructor"
    },
    {
      "payable": true,
      "stateMutability": "payable",
      "type": "fallback"
    },
    {
      "anonymous": false,
      "inputs": [
        {
          "indexed": true,
          "name": "_owner",
          "type": "address"
        },
        {
          "indexed": true,
          "name": "_spender",
          "type": "address"
        },
        {
          "indexed": false,
          "name": "_value",
          "type": "uint256"
        }
      ],
      "name": "Approval",
      "type": "event"
    },
    {
      "anonymous": false,
      "inputs": [
        {
          "indexed": true,
          "name": "_from",
          "type": "address"
        },
        {
          "indexed": true,
          "name": "_to",
          "type": "address"
        },
        {
          "indexed": false,
          "name": "_value",
          "type": "uint256"
        }
      ],
      "name": "Transfer",
      "type": "event"
    },
    {
      "anonymous": false,
      "inputs": [
        {
          "indexed": false,
          "name": "_addr",
          "type": "address"
        },
        {
          "indexed": false,
          "name": "_amount",
          "type": "uint256"
        }
      ],
      "name": "Distribution",
      "type": "event"
    },
    {
      "constant": false,
      "inputs": [],
      "name": "buy",
      "outputs": [
        {
          "name": "",
          "type": "uint256"
        }
      ],
      "payable": true,
      "stateMutability": "payable",
      "type": "function"
    },
    {
      "constant": false,
      "inputs": [
        {
          "name": "_amount",
          "type": "uint256"
        }
      ],
      "name": "distribute",
      "outputs": [
        {
          "name": "",
          "type": "bool"
        }
      ],
      "payable": false,
      "stateMutability": "nonpayable",
      "type": "function"
    },
    {
      "constant": false,
      "inputs": [],
      "name": "findLowestBenefactor",
      "outputs": [
        {
          "name": "",
          "type": "address"
        }
      ],
      "payable": false,
      "stateMutability": "nonpayable",
      "type": "function"
    },
    {
      "constant": false,
      "inputs": [],
      "name": "findEmptyBenefactorIndex",
      "outputs": [
        {
          "name": "",
          "type": "uint8"
        }
      ],
      "payable": false,
      "stateMutability": "nonpayable",
      "type": "function"
    },
    {
      "constant": false,
      "inputs": [
        {
          "name": "_amount",
          "type": "uint256"
        },
        {
          "name": "_investor",
          "type": "address"
        }
      ],
      "name": "reorganize",
      "outputs": [
        {
          "name": "",
          "type": "bool"
        }
      ],
      "payable": false,
      "stateMutability": "nonpayable",
      "type": "function"
    },
    {
      "constant": false,
      "inputs": [
        {
          "name": "_to",
          "type": "address"
        },
        {
          "name": "_amount",
          "type": "uint256"
        }
      ],
      "name": "transfer",
      "outputs": [
        {
          "name": "success",
          "type": "bool"
        }
      ],
      "payable": false,
      "stateMutability": "nonpayable",
      "type": "function"
    },
    {
      "constant": false,
      "inputs": [
        {
          "name": "_from",
          "type": "address"
        },
        {
          "name": "_to",
          "type": "address"
        },
        {
          "name": "_amount",
          "type": "uint256"
        }
      ],
      "name": "transferFrom",
      "outputs": [
        {
          "name": "success",
          "type": "bool"
        }
      ],
      "payable": false,
      "stateMutability": "nonpayable",
      "type": "function"
    },
    {
      "constant": false,
      "inputs": [
        {
          "name": "_spender",
          "type": "address"
        },
        {
          "name": "_value",
          "type": "uint256"
        }
      ],
      "name": "approve",
      "outputs": [
        {
          "name": "success",
          "type": "bool"
        }
      ],
      "payable": false,
      "stateMutability": "nonpayable",
      "type": "function"
    },
    {
      "constant": true,
      "inputs": [
        {
          "name": "_owner",
          "type": "address"
        },
        {
          "name": "_spender",
          "type": "address"
        }
      ],
      "name": "allowance",
      "outputs": [
        {
          "name": "remaining",
          "type": "uint256"
        }
      ],
      "payable": false,
      "stateMutability": "view",
      "type": "function"
    }
  ],
  "bytecode": "0x608060405260126001556040805190810160405280600381526020017f4e4f54000000000000000000000000000000000000000000000000000000000081525060029080519060200190620000569291906200021b565b506040805190810160405280600c81526020017f4e6f74415365637572697479000000000000000000000000000000000000000081525060039080519060200190620000a49291906200021b565b50348015620000b257600080fd5b50604051602080620018bb833981018060405281019080805190602001909291905050503360066001600b81101515620000e857fe5b0160006101000a81548173ffffffffffffffffffffffffffffffffffffffff021916908373ffffffffffffffffffffffffffffffffffffffff1602179055506000601360006101000a81548173ffffffffffffffffffffffffffffffffffffffff021916908373ffffffffffffffffffffffffffffffffffffffff1602179055506001601260003373ffffffffffffffffffffffffffffffffffffffff1673ffffffffffffffffffffffffffffffffffffffff16815260200190815260200160002060006101000a81548160ff021916908360ff16021790555080600460003373ffffffffffffffffffffffffffffffffffffffff1673ffffffffffffffffffffffffffffffffffffffff16815260200190815260200160002081905550806000819055508060118190555050620002ca565b828054600181600116156101000203166002900490600052602060002090601f016020900481019282601f106200025e57805160ff19168380011785556200028f565b828001600101855582156200028f579182015b828111156200028e57825182559160200191906001019062000271565b5b5090506200029e9190620002a2565b5090565b620002c791905b80821115620002c3576000816000905550600101620002a9565b5090565b90565b6115e180620002da6000396000f3006080604052600436106100e6576000357c0100000000000000000000000000000000000000000000000000000000900463ffffffff16806306fdde03146100f1578063095ea7b314610181578063128ee161146101e657806316da7d911461025357806318160ddd146102b85780631a4a1a6c146102e357806323b872dd1461030e578063313ce5671461039357806370a08231146103be5780637acf16c31461041557806391c05b0b1461046c57806395d89b41146104b1578063a6f2ae3a14610541578063a9059cbb1461055f578063dd62ed3e146105c4578063fef7d5a81461063b575b6100ee61066c565b50005b3480156100fd57600080fd5b50610106610713565b6040518080602001828103825283818151815260200191508051906020019080838360005b8381101561014657808201518184015260208101905061012b565b50505050905090810190601f1680156101735780820380516001836020036101000a031916815260200191505b509250505060405180910390f35b34801561018d57600080fd5b506101cc600480360381019080803573ffffffffffffffffffffffffffffffffffffffff169060200190929190803590602001909291905050506107b1565b604051808215151515815260200191505060405180910390f35b3480156101f257600080fd5b50610211600480360381019080803590602001909291905050506108a3565b604051808273ffffffffffffffffffffffffffffffffffffffff1673ffffffffffffffffffffffffffffffffffffffff16815260200191505060405180910390f35b34801561025f57600080fd5b5061029e60048036038101908080359060200190929190803573ffffffffffffffffffffffffffffffffffffffff1690602001909291905050506108d8565b604051808215151515815260200191505060405180910390f35b3480156102c457600080fd5b506102cd610d04565b6040518082815260200191505060405180910390f35b3480156102ef57600080fd5b506102f8610d0a565b6040518082815260200191505060405180910390f35b34801561031a57600080fd5b50610379600480360381019080803573ffffffffffffffffffffffffffffffffffffffff169060200190929190803573ffffffffffffffffffffffffffffffffffffffff16906020019092919080359060200190929190505050610d10565b604051808215151515815260200191505060405180910390f35b34801561039f57600080fd5b506103a8610e51565b6040518082815260200191505060405180910390f35b3480156103ca57600080fd5b506103ff600480360381019080803573ffffffffffffffffffffffffffffffffffffffff169060200190929190505050610e57565b6040518082815260200191505060405180910390f35b34801561042157600080fd5b5061042a610e6f565b604051808273ffffffffffffffffffffffffffffffffffffffff1673ffffffffffffffffffffffffffffffffffffffff16815260200191505060405180910390f35b34801561047857600080fd5b5061049760048036038101908080359060200190929190505050610fc8565b604051808215151515815260200191505060405180910390f35b3480156104bd57600080fd5b506104c6611174565b6040518080602001828103825283818151815260200191508051906020019080838360005b838110156105065780820151818401526020810190506104eb565b50505050905090810190601f1680156105335780820380516001836020036101000a031916815260200191505b509250505060405180910390f35b61054961066c565b6040518082815260200191505060405180910390f35b34801561056b57600080fd5b506105aa600480360381019080803573ffffffffffffffffffffffffffffffffffffffff16906020019092919080359060200190929190505050611212565b604051808215151515815260200191505060405180910390f35b3480156105d057600080fd5b50610625600480360381019080803573ffffffffffffffffffffffffffffffffffffffff169060200190929190803573ffffffffffffffffffffffffffffffffffffffff169060200190929190505050611227565b6040518082815260200191505060405180910390f35b34801561064757600080fd5b506106506112ae565b604051808260ff1660ff16815260200191505060405180910390f35b600080600034915033905060008211151561068657600080fd5b61068f82610fc8565b151561069a57600080fd5b81600460008373ffffffffffffffffffffffffffffffffffffffff1673ffffffffffffffffffffffffffffffffffffffff1681526020019081526020016000206000828254019250508190555081600080828254019250508190555061070082826108d8565b151561070b57600080fd5b819250505090565b60038054600181600116156101000203166002900480601f0160208091040260200160405190810160405280929190818152602001828054600181600116156101000203166002900480156107a95780601f1061077e576101008083540402835291602001916107a9565b820191906000526020600020905b81548152906001019060200180831161078c57829003601f168201915b505050505081565b600081600560003373ffffffffffffffffffffffffffffffffffffffff1673ffffffffffffffffffffffffffffffffffffffff16815260200190815260200160002060008573ffffffffffffffffffffffffffffffffffffffff1673ffffffffffffffffffffffffffffffffffffffff168152602001908152602001600020819055508273ffffffffffffffffffffffffffffffffffffffff163373ffffffffffffffffffffffffffffffffffffffff167f8c5be1e5ebec7d5bd14f71427d1e84f3dd0314c0f7b2291e5b200ac8c7c3b925846040518082815260200191505060405180910390a36001905092915050565b600681600b811015156108b257fe5b016000915054906101000a900473ffffffffffffffffffffffffffffffffffffffff1681565b6000806000806000601260008773ffffffffffffffffffffffffffffffffffffffff1673ffffffffffffffffffffffffffffffffffffffff16815260200190815260200160002060009054906101000a900460ff1660ff16111561094b5785601160008282540192505081905550610cf7565b60046000601360009054906101000a900473ffffffffffffffffffffffffffffffffffffffff1673ffffffffffffffffffffffffffffffffffffffff1673ffffffffffffffffffffffffffffffffffffffff16815260200190815260200160002054600460008773ffffffffffffffffffffffffffffffffffffffff1673ffffffffffffffffffffffffffffffffffffffff168152602001908152602001600020541115610cf657600073ffffffffffffffffffffffffffffffffffffffff16601360009054906101000a900473ffffffffffffffffffffffffffffffffffffffff1673ffffffffffffffffffffffffffffffffffffffff1614925060046000601360009054906101000a900473ffffffffffffffffffffffffffffffffffffffff1673ffffffffffffffffffffffffffffffffffffffff1673ffffffffffffffffffffffffffffffffffffffff16815260200190815260200160002054915082610b245760126000601360009054906101000a900473ffffffffffffffffffffffffffffffffffffffff1673ffffffffffffffffffffffffffffffffffffffff1673ffffffffffffffffffffffffffffffffffffffff16815260200190815260200160002060009054906101000a900460ff16610b2d565b610b2c6112ae565b5b9050821515610bb257600060126000601360009054906101000a900473ffffffffffffffffffffffffffffffffffffffff1673ffffffffffffffffffffffffffffffffffffffff1673ffffffffffffffffffffffffffffffffffffffff16815260200190815260200160002060006101000a81548160ff021916908360ff1602179055505b8460068260ff16600b81101515610bc557fe5b0160006101000a81548173ffffffffffffffffffffffffffffffffffffffff021916908373ffffffffffffffffffffffffffffffffffffffff16021790555080601260008773ffffffffffffffffffffffffffffffffffffffff1673ffffffffffffffffffffffffffffffffffffffff16815260200190815260200160002060006101000a81548160ff021916908360ff160217905550610c64610e6f565b601360006101000a81548173ffffffffffffffffffffffffffffffffffffffff021916908373ffffffffffffffffffffffffffffffffffffffff16021790555081600460008773ffffffffffffffffffffffffffffffffffffffff1673ffffffffffffffffffffffffffffffffffffffff16815260200190815260200160002054036011600082825401925050819055505b5b6001935050505092915050565b60005481565b60115481565b60008082600560008773ffffffffffffffffffffffffffffffffffffffff1673ffffffffffffffffffffffffffffffffffffffff16815260200190815260200160002060003373ffffffffffffffffffffffffffffffffffffffff1673ffffffffffffffffffffffffffffffffffffffff1681526020019081526020016000205410151515610d9e57600080fd5b610da9858585611348565b90508015610e445782600560008773ffffffffffffffffffffffffffffffffffffffff1673ffffffffffffffffffffffffffffffffffffffff16815260200190815260200160002060003373ffffffffffffffffffffffffffffffffffffffff1673ffffffffffffffffffffffffffffffffffffffff1681526020019081526020016000206000828254039250508190555060019150610e49565b600091505b509392505050565b60015481565b60046020528060005260406000206000915090505481565b60008060008060066001600b81101515610e8557fe5b0160009054906101000a900473ffffffffffffffffffffffffffffffffffffffff169250600290505b600b811015610fbe57600681600b81101515610ec657fe5b0160009054906101000a900473ffffffffffffffffffffffffffffffffffffffff169150600073ffffffffffffffffffffffffffffffffffffffff168273ffffffffffffffffffffffffffffffffffffffff161415610f2757819350610fc2565b600460008473ffffffffffffffffffffffffffffffffffffffff1673ffffffffffffffffffffffffffffffffffffffff16815260200190815260200160002054600460008473ffffffffffffffffffffffffffffffffffffffff1673ffffffffffffffffffffffffffffffffffffffff168152602001908152602001600020541015610fb1578192505b8080600101915050610eae565b8293505b50505090565b6000806000806000600193505b600b84101561116757600684600b81101515610fed57fe5b0160009054906101000a900473ffffffffffffffffffffffffffffffffffffffff169250600460008473ffffffffffffffffffffffffffffffffffffffff1673ffffffffffffffffffffffffffffffffffffffff16815260200190815260200160002054915060115486830281151561106257fe5b0490507f33ad5d6b2a46b5457e0d36286a2686a0390b0821dedbbdf8dcdcda64f4782c688382604051808373ffffffffffffffffffffffffffffffffffffffff1673ffffffffffffffffffffffffffffffffffffffff1681526020018281526020019250505060405180910390a160008111801561110d5750600073ffffffffffffffffffffffffffffffffffffffff168373ffffffffffffffffffffffffffffffffffffffff1614155b1561115a578273ffffffffffffffffffffffffffffffffffffffff166108fc829081150290604051600060405180830381858888f19350505050158015611158573d6000803e3d6000fd5b505b8380600101945050610fd5565b6001945050505050919050565b60028054600181600116156101000203166002900480601f01602080910402602001604051908101604052809291908181526020018280546001816001161561010002031660029004801561120a5780601f106111df5761010080835404028352916020019161120a565b820191906000526020600020905b8154815290600101906020018083116111ed57829003601f168201915b505050505081565b600061121f338484611348565b905092915050565b6000600560008473ffffffffffffffffffffffffffffffffffffffff1673ffffffffffffffffffffffffffffffffffffffff16815260200190815260200160002060008373ffffffffffffffffffffffffffffffffffffffff1673ffffffffffffffffffffffffffffffffffffffff16815260200190815260200160002054905092915050565b600080600190505b600b8160ff16101561133f57600073ffffffffffffffffffffffffffffffffffffffff1660068260ff16600b811015156112ec57fe5b0160009054906101000a900473ffffffffffffffffffffffffffffffffffffffff1673ffffffffffffffffffffffffffffffffffffffff16141561133257809150611344565b80806001019150506112b6565b600091505b5090565b60008073ffffffffffffffffffffffffffffffffffffffff168373ffffffffffffffffffffffffffffffffffffffff161415151561138557600080fd5b3073ffffffffffffffffffffffffffffffffffffffff168373ffffffffffffffffffffffffffffffffffffffff16141515156113c057600080fd5b6000821115156113cf57600080fd5b81600460008673ffffffffffffffffffffffffffffffffffffffff1673ffffffffffffffffffffffffffffffffffffffff168152602001908152602001600020541015151561141d57600080fd5b600460008473ffffffffffffffffffffffffffffffffffffffff1673ffffffffffffffffffffffffffffffffffffffff1681526020019081526020016000205482600460008673ffffffffffffffffffffffffffffffffffffffff1673ffffffffffffffffffffffffffffffffffffffff16815260200190815260200160002054011115156114ab57600080fd5b81600460008673ffffffffffffffffffffffffffffffffffffffff1673ffffffffffffffffffffffffffffffffffffffff1681526020019081526020016000206000828254039250508190555081600460008573ffffffffffffffffffffffffffffffffffffffff1673ffffffffffffffffffffffffffffffffffffffff168152602001908152602001600020600082825401925050819055508273ffffffffffffffffffffffffffffffffffffffff163373ffffffffffffffffffffffffffffffffffffffff167fddf252ad1be2c89b69c2b068fc378daa952ba7f163c4a11628f55a4df523b3ef846040518082815260200191505060405180910390a36001905093925050505600a165627a7a72305820bad72a0dd5857d7a33bb02901cfe8d2c26c734197900a8753e4339b84bf8ee590029",
  "source": "pragma solidity ^0.4.23;\n\ncontract NotASecurity {\n  uint public totalSupply;\n\n  uint public decimals = 18;\n  string public symbol = \"NOT\";\n  string public name = \"NotASecurity\";\n\n  mapping (address => uint) public balanceOf;\n  mapping (address => mapping (address => uint)) internal allowed;\n\n  address[11] public benefactors;\n  uint public benefactorsBalance;\n\n  // Caching things for performance reasons\n  mapping (address => uint8) private benefactorMap;\n  address private lowestBenefactor;\n\n  event Approval(address indexed _owner, address indexed _spender, uint _value);\n  event Transfer(address indexed _from, address indexed _to, uint _value);\n\n  constructor (uint _fee) public {\n    benefactors[1] = msg.sender;\n    lowestBenefactor = address(0);\n    benefactorMap[msg.sender] = 1;\n    balanceOf[msg.sender] = _fee;\n    totalSupply = _fee;\n    benefactorsBalance = _fee;\n  }\n\n  function buy() payable public returns (uint) {\n    uint _wei = msg.value;\n    address _investor = msg.sender;\n\n    require(_wei > 0);\n    require(distribute(_wei));\n\n    balanceOf[_investor] += _wei;\n    totalSupply += _wei;\n\n    require(reorganize(_wei, _investor));\n\n    return _wei;\n  }\n\n  function () payable public {\n    buy();\n  }\n\n  event Distribution(address _addr, uint _amount);\n\n  function distribute(uint _amount) public returns (bool) {\n    for (uint _i = 1; _i < benefactors.length; _i++) {\n      address _benefactor = benefactors[_i];\n      uint _benefactorBalance = balanceOf[_benefactor];\n\n      uint _amountToTransfer = (_benefactorBalance * _amount) / benefactorsBalance;\n      emit Distribution(_benefactor, _amountToTransfer);\n\n      if (_amountToTransfer > 0 && _benefactor != address(0)) {\n        _benefactor.transfer(_amountToTransfer);\n      }\n    }\n\n    return true;\n  }\n\n  function findLowestBenefactor() public returns (address) {\n    address _lowestBenefactor = benefactors[1];\n    address _benefactor;\n    for (\n      uint _j = 2;\n      _j < benefactors.length;\n      _j++\n    ) {\n      _benefactor = benefactors[_j];\n      if (_benefactor == address(0)) {\n        return _benefactor;\n\n      } else if (balanceOf[_benefactor] < balanceOf[_lowestBenefactor]) {\n        _lowestBenefactor = _benefactor;\n      }\n    }\n    return _lowestBenefactor;\n  }\n\n  function findEmptyBenefactorIndex() public returns (uint8) {\n    for (uint8 _i = 1; _i < benefactors.length; _i++) {\n      if (benefactors[_i] == address(0)) {\n        return _i;\n      }\n    }\n\n    return 0;\n  }\n\n  function reorganize(uint _amount, address _investor) public returns (bool) {\n    // if investor is already a benefactor\n    if (benefactorMap[_investor] > 0) {\n      benefactorsBalance += _amount;\n\n    // if investor is now a top token holder\n    } else if (balanceOf[_investor] > balanceOf[lowestBenefactor]) {\n      bool _lowestBenefactorEmpty = lowestBenefactor == address(0);\n      uint _oldBalance = balanceOf[lowestBenefactor];\n      uint8 _indexToSwap = _lowestBenefactorEmpty\n        ? findEmptyBenefactorIndex()\n        : benefactorMap[lowestBenefactor];\n\n      // Swap out benefactors\n      if (!_lowestBenefactorEmpty) {\n        benefactorMap[lowestBenefactor] = 0;\n      }\n      benefactors[_indexToSwap] = _investor;\n      benefactorMap[_investor] = _indexToSwap;\n      lowestBenefactor = findLowestBenefactor();\n\n      // Adjust benefactors balance\n      benefactorsBalance += (balanceOf[_investor] - _oldBalance);\n\n    }\n\n    return true;\n  }\n\n  function _transfer(\n    address _from,\n    address _to,\n    uint _amount\n  ) internal returns (bool success) {\n    require(_to != address(0));\n    require(_to != address(this));\n    require(_amount > 0);\n    require(balanceOf[_from] >= _amount);\n    require(balanceOf[_to] + _amount > balanceOf[_to]);\n\n    balanceOf[_from] -= _amount;\n    balanceOf[_to] += _amount;\n\n    // reorganize for both addresses\n\n    emit Transfer(msg.sender, _to, _amount);\n\n    return true;\n  }\n\n  function transfer(address _to, uint _amount) public returns (bool success) {\n    return _transfer(msg.sender, _to, _amount);\n  }\n\n  function transferFrom(address _from, address _to, uint _amount) external returns (bool success) {\n    require(allowed[_from][msg.sender] >= _amount);\n\n    bool _tranferSuccess = _transfer(_from, _to, _amount);\n    if (_tranferSuccess) {\n      allowed[_from][msg.sender] -= _amount;\n      return true;\n    } else {\n      return false;\n    }\n  }\n\n  function approve(address _spender, uint _value) external returns (bool success) {\n    allowed[msg.sender][_spender] = _value;\n    emit Approval(msg.sender, _spender, _value);\n    return true;\n  }\n\n  function allowance(address _owner, address _spender) external constant returns (uint remaining) {\n    return allowed[_owner][_spender];\n  }\n}\n",
  "sourcePath": "/Users/spikelny/Desktop/projects/nas/contracts/NotASecurity.sol",
  "compiler": {
    "name": "solc",
    "version": "0.4.24+commit.e67f0147.Emscripten.clang"
  },
  "schemaVersion": "2.0.0",
  "updatedAt": "2018-06-21T02:19:26.765Z"
}